:100000000C945D010C948E010C948E010C948E0165
:100010000C948E010C948E010C948E010C948E0124
:100020000C948E010C948E010C948E010C948E0114
:100030000C948E010C948E010C948E010C948E0104
:100040000C948E010C948E010C948E010C948E01F4
:100050000C948E010C948E010C948E010C94CD06A0
:100060000C948E010C9441070C9417070C948E018C
:100070000C948E010C948E010C948E010C948E01C4
:100080000C948E010C948E010C948E010C948E01B4
:100090000C948E010C948E010C948E010C948E01A4
:1000A0000C948E010C948E010C948E010C948E0194
:1000B0000C948E010C948E010C948E010C948E0184
:1000C0000C948E010C948E010C948E010C948E0174
:1000D0000C948E010C948E010C948E010C948E0164
:1000E0000C948E010C94F3010C94B3030C94EF0167
:1000F0000C94D7010C9469040C94BA040C94110369
:100100000C94CA020C94E1010C94C2020C94BB043E
:100110000C94D6030C94AE010C94ED020C9448039D
:100120000C94D3010C94D9020C94F5020C94340372
:100130000C94E9010C94C9010C94EE010C94520347
:100140000C94B4010C941C040C943D060C94E40330
:100150000C94FD020C94C0010C94E5010C94C203B4
:100160000C94E3020C9407030C9486030C942A036A
:100170000C94B8010C94BC010C94CD010C945C035C
:100180000C94DB010C9477070C94CF020C941B03A6
:100190000C943E030C94C3010000210024002700AE
:1001A0002A002D0030003300010100000401070186
:1001B0000A0100002200250028002B002E0031003B
:1001C000340002010000050108010B0100002000BD
:1001D0002300260029002C002F003200000100001F
:1001E00003010601090105050505070508080808BA
:1001F000020202020A0A08080404040401010101BF
:1002000001010101030303030303030304070707B9
:100210000C0C0C0C0C0C0C0C02020202060606065E
:10022000060606060B0B0B0B0B0B0B0B010210202B
:10023000200808102040102040800201020108041C
:1002400002010102040810204080804020100804B0
:100250000201800402018040201008040201080409
:10026000020101020408102040800102040810204D
:10027000408000000A0B02090C0D0E080703040160
:10028000000000000000000000000000000000006E
:10029000000000000000000000000000000012113B
:1002A000100000000000000000000000000000003E
:1002B0000000000000000000770711241FBECFEFF0
:1002C000D1E2DEBFCDBF00E00CBF12E0A0E0B2E0A3
:1002D000EEE1FCE100E00BBF02C007900D92A23FEF
:1002E000B107D9F723E0A2EFB2E001C01D92AA3C0A
:1002F000B207E1F711E0CDE5D1E000E006C02197BB
:100300000109802FFE010E94F10DCC35D10780E05C
:100310000807A9F70E94C1070C940D0E0C94000069
:100320008150823108F05AC0E82FF0E08827E45667
:10033000FE4F8F4F0C94F10DBC01C001AE01B40112
:10034000B801EE01C301C901CD01D301D701DB0121
:10035000E101E501EE01E901EF01F3018091800087
:100360008F77809380000895809180008F7DF9CFF2
:1003700080918000877FF5CF84B58F7784BD089505
:1003800084B58F7DFBCF8091B0008F778093B000D4
:1003900008958091B0008F7DF9CF809190008F7784
:1003A000809390000895809190008F7DF9CF809187
:1003B0009000877FF5CF8091A0008F778093A00079
:1003C00008958091A0008F7DF9CF8091A000877F54
:1003D000F5CF809120018F7780932001089580913F
:1003E00020018F7DF9CF80912001877FF5CFCF93BA
:1003F000DF93282F30E0F901EE58FD4F8491F90189
:10040000E45DFD4FD491F901EA51FE4FC491CC2334
:10041000A1F081110E949001EC2FF0E0EE0FFF1F80
:10042000E453FE4FA591B491EC91ED2381E090E06F
:1004300009F480E0DF91CF91089580E090E0FACF59
:100440001F93CF93DF93282F30E0F901EE58FD4F33
:100450008491F901E45DFD4FD491F901EA51FE4F19
:10046000C491CC23A9F0162F81110E949001EC2F8A
:10047000F0E0EE0FFF1FEE54FE4FA591B4918FB741
:10048000F894EC91111108C0D095DE23DC938FBF56
:10049000DF91CF911F910895DE2BF8CFCF93DF939B
:1004A00090E0FC01E45DFD4F24918A519E4FFC01D8
:1004B00084918823C9F090E0880F991FFC01E856C9
:1004C000FE4FA591B491FC01EE54FE4FC591D4911D
:1004D00061110DC09FB7F8948C91209582238C9365
:1004E0008881282328839FBFDF91CF9108956230B0
:1004F00051F49FB7F8943C91822F809583238C937D
:10050000E8812E2BEFCF8FB7F894EC912E2B2C9304
:100510008FBFEACF1F93CF93DF93182FEB0161E0DA
:100520000E944E02209739F460E0812FDF91CF9135
:100530001F910C942002CF3FD10511F461E0F5CF5B
:10054000E12FF0E0EE58FD4FE491E150E23108F088
:10055000B3C0F0E08827E055FD4F8F4F0C94F10DAC
:10056000C202CA02CF02D902E3025C03ED02F50225
:10057000FD02070311031B032A0334035C033E033C
:100580004803520384B5806884BDC7BDDF91CF9115
:100590001F91089584B5806284BDC8BDF7CF809156
:1005A0008000806880938000D0938900C093880089
:1005B000EDCF80918000806280938000D0938B008B
:1005C000C0938A00E3CF8091800088608093800090
:1005D000D0938D00C0938C00D9CF8091B0008068FB
:1005E0008093B000C093B300D1CF8091B0008062FF
:1005F0008093B000C093B400C9CF80919000806810
:1006000080939000D0939900C0939800BFCF8091C1
:100610009000806280939000D0939B00C0939A00DA
:10062000B5CF80919000886080939000D0939D001A
:10063000C0939C00ABCF8091A00080688093A00005
:100640008091A0008F7B8093A000D093A900C093DD
:10065000A8009CCF8091A00080628093A000D093DE
:10066000AB00C093AA0092CF8091A00088608093D5
:10067000A000D093AD00C093AC0088CF8091200142
:10068000806880932001D0932901C09328017ECFF8
:1006900080912001806280932001D0932B01C09330
:1006A0002A0174CF80912001886080932001D0932B
:1006B0002D01C0932C016ACFC038D1050CF03ECF7C
:1006C00033CF3FB7F8948091110390911203A0911A
:1006D0001303B091140326B5A89B05C02F3F19F052
:1006E0000196A11DB11D3FBFBA2FA92F982F8827B2
:1006F000BC01CD01620F711D811D911D42E0660F8D
:10070000771F881F991F4A95D1F70895AF92BF921E
:10071000CF92DF92EF92FF920F931F93CF93DF93CD
:100720006C017B018B01040F151FEB015E01AE18FC
:10073000BF08C017D10759F06991D601ED91FC911E
:100740000190F081E02DC6011995892B79F7C5013B
:10075000DF91CF911F910F91FF90EF90DF90CF909D
:10076000BF90AF900895FC01538D448D252F30E04C
:10077000842F90E0821B930B541710F0CF960895AE
:1007800001970895FC01918D828D981761F0A28DDB
:10079000AE0FBF2FB11D5D968C91928D9F5F9F73A1
:1007A000928F90E008958FEF9FEF0895FC01918D57
:1007B000828D981731F0828DE80FF11D858D90E0C4
:1007C00008958FEF9FEF0895FC01918D228D892F61
:1007D00090E0805C9F4F821B91098F739927089549
:1007E00085E193E00E94E40321E0892B09F420E0F5
:1007F000822F0895FC01A48DA80FB92FB11DA35A13
:10080000BF4F2C91848D90E001968F739927848F30
:10081000A689B7892C93A089B1898C918370806453
:100820008C93938D848D981306C00288F389E02DF4
:1008300080818F7D80830895EF92FF920F931F93A5
:10084000CF93DF93EC0181E0888F9B8D8C8D981383
:100850001AC0E889F989808185FF15C09FB7F8948F
:10086000EE89FF896083E889F989808183708064DB
:1008700080839FBF81E090E0DF91CF911F910F9126
:10088000FF90EF900895F62E0B8D10E00F5F1F4F35
:100890000F731127E02E8C8D8E110CC00FB607FC44
:1008A000FACFE889F989808185FFF5CFCE010E94D2
:1008B000FA03F1CFEB8DEC0FFD2FF11DE35AFF4F43
:1008C000F0829FB7F8940B8FEA89FB898081806260
:1008D000CFCFCF93DF93EC01888D8823B9F0AA891D
:1008E000BB89E889F9898C9185FD03C0808186FDEB
:1008F0000DC00FB607FCF7CF8C9185FFF2CF80813A
:1009000085FFEDCFCE010E94FA03E9CFDF91CF91B1
:10091000089580E090E0892B29F00E94F003811176
:100920000E94000080E090E0892B49F080E090E098
:10093000892B29F00E94000081110E94000080E0B4
:1009400090E0892B49F080E090E0892B29F00E940B
:10095000000081110E94000080E090E0892B49F0A6
:1009600080E090E0892B29F00E94000081110C9416
:1009700000000895089590E080E0089560E083E02D
:100980000E94200260E084E00E94200270E060E0AB
:1009900082E00C948A02CF93DF93EC0160E083E065
:1009A0000E94200261E084E00E942002BE0182E0F9
:1009B000DF91CF910C948A02CF93DF93EC0161E039
:1009C00083E00E94200260E084E00E942002BE01D9
:1009D00082E0DF91CF910C948A02CF93DF93EC01F8
:1009E00060E08E810E94200261E08E810E942002E0
:1009F00060E08E810E9420028BE891E00197F1F780
:100A0000DF91CF910895CF92DF92EF92FF920F93F3
:100A10001F93CF93DF936C017C0187E0E80EF11CFC
:100A2000D0E0C0E0062F10E0B8010C2E02C0759592
:100A300067950A94E2F76170F70181917F010E9446
:100A400020022196C430D10579F7C601DF91CF91FC
:100A50001F910F91FF90EF90DF90CF900C94ED04D9
:100A6000CF92DF92EF92FF920F931F93CF93DF937A
:100A7000EC01F62E642F8C810E9420028D818F3F25
:100A800019F060E00E9420020F2D10E08F8584FF96
:100A900025C06E0187E0C80ED11CF12CE12CB801F5
:100AA0000E2C02C0759567950A94E2F76170F60105
:100AB00081916F010E942002FFEFEF1AFF0A88E088
:100AC000E816F10461F7CE01DF91CF911F910F91EC
:100AD000FF90EF90DF90CF900C94ED04B80184E08C
:100AE000759567958A95E1F7CE010E9403056F2DF4
:100AF000CE01DF91CF911F910F91FF90EF90DF908A
:100B0000CF900C94030540E0682F82EB93E00C94A7
:100B10003005CF93DF93823029F49091C103986020
:100B20009093C1038093C5031092C60380E4809321
:100B3000C70380E18093C80380E58093C90361E027
:100B40008091B6030E944E028091B7038F3F19F047
:100B500061E00E944E0261E08091B8030E944E0263
:100B6000C2EBD3E09E01225B33408091C10384FD40
:100B70000BC084E090E021962817390744F461E027
:100B80008E810E944E02EECF88E090E0F4CF8BE39E
:100B90009DE00197F1F760E08091B6030E9420028A
:100BA00060E08091B8030E9420028091B7038F3FDC
:100BB00019F060E00E9420028091C10384FD39C0D9
:100BC00063E082EB93E00E940305CBE4D6E4CE0120
:100BD0000197F1F763E082EB93E00E940305219710
:100BE000F1F763E082EB93E00E94030583E592E076
:100BF0000197F1F762E082EB93E00E940305809198
:100C0000C10380620E94830584E08093C2038CE06C
:100C10000E94830581E00E9483058BE39FE1019799
:100C2000F1F782E08093C30386E0DF91CF910C94CB
:100C3000830580620E9483058BE496E40197F1F7B7
:100C40008091C10380620E94830583E592E0019751
:100C5000F1F78091C10380620E948305D0CF90910B
:100C6000C503891710F08FEF890FE82FF0E0EE54DD
:100C7000FC4F848980680C94830541E00E94300514
:100C800081E090E00895FB0101900020E9F73197A1
:100C9000AF01461B570BDC01ED91FC910280F38103
:100CA000E02D1994BC0182EB93E00C944306CF92A3
:100CB000DF92EF92FF920F931F93CF93DF93CDB705
:100CC000DEB7A1970FB6F894DEBF0FBECDBF6B01A4
:100CD0007C01F7FE3EC041E06DE282EB93E00E94B2
:100CE000300522273327A9012C193D094E095F0938
:100CF00019A28E010F5D1F4F9AE0C92ED12CE12C55
:100D0000F12CCA01B901A70196010E94780C605D1F
:100D1000F80162938F01211531054105510589F7CD
:100D200090E080E0309729F0BF0182EB93E00E94D1
:100D300043060196A1960FB6F894DEBF0FBECDBF55
:100D4000DF91CF911F910F91FF90EF90DF90CF90A7
:100D50000895AC019B0119A28E010F5D1F4F8AE01F
:100D6000C82ED12CE12CF12CCA01B901A7019601A2
:100D70000E94780C605DF80162938F0121153105A6
:100D80004105510589F790E080E0309799F2BF0165
:100D900082EB93E00E944306CDCF1F920F920FB6D5
:100DA0000F9211242F933F938F939F93AF93BF93F1
:100DB00080910D0390910E03A0910F03B091100349
:100DC00030910C0323E0230F2D3758F50196A11D18
:100DD000B11D20930C0380930D0390930E03A093F9
:100DE0000F03B09310038091110390911203A0910F
:100DF0001303B09114030196A11DB11D809311033B
:100E000090931203A0931303B0931403BF91AF9177
:100E10009F918F913F912F910F900FBE0F901F9038
:100E2000189526E8230F0296A11DB11DD2CF1F925F
:100E30000F920FB60F9211240BB60F922F933F9380
:100E40004F935F936F937F938F939F93AF93BF93D2
:100E5000EF93FF9385E193E00E94FA03FF91EF91F6
:100E6000BF91AF919F918F917F916F915F914F91C2
:100E70003F912F910F900BBE0F900FBE0F901F90C0
:100E800018951F920F920FB60F9211240BB60F9266
:100E90002F938F939F93EF93FF93E0912503F0910E
:100EA00026038081E0912B03F0912C0382FD1DC06D
:100EB000908180912E038F5F8F7320912F03821773
:100EC00041F0E0912E03F0E0EB5EFC4F958F8093B4
:100ED0002E03FF91EF919F918F912F910F900BBE59
:100EE0000F900FBE0F901F9018958081F2CFE5E113
:100EF000F3E01382128288EE93E0A0E0B0E08483F6
:100F00009583A683B7838CE292E09183808385ECFE
:100F100090E09587848784EC90E09787868780ECC3
:100F200090E0918B808B81EC90E0938B828B82ECB4
:100F300090E0958B848B86EC90E0978B868B118E5E
:100F4000128E138E148EE2EBF3E0138212828EE384
:100F500092E0918380838EE184838FEF85838FE19C
:100F6000868380E2878381E2808782E2818783E2D1
:100F700082871386148615861686178681E00C9460
:100F80008905CF93DF9300D000D0CDB7DEB778943A
:100F900084B5826084BD84B5816084BD85B582607E
:100FA00085BD85B5816085BD80916E00816080932F
:100FB0006E00109281008091810082608093810098
:100FC00080918100816080938100809180008160A8
:100FD000809380008091B10084608093B100809103
:100FE000B00081608093B000809191008260809316
:100FF0009100809191008160809391008091900098
:101000008160809390008091A10082608093A10014
:101010008091A10081608093A1008091A0008160F7
:101020008093A000809121018260809321018091B2
:101030002101816080932101809120018160809352
:10104000200180917A00846080937A0080917A00F8
:10105000826080937A0080917A00816080937A0028
:1010600080917A00806880937A001092C10081B1EB
:101070008F6181B982B1807E82B982B1807E82B96E
:10108000109A82E00E94890586E492E00E9452064E
:1010900081E00E942F0682E592E00E9452060E94A3
:1010A00061034B015C0160EDC62E67E0D62EE12C9A
:1010B000F12C0E946103681979098A099B09683E2D
:1010C000734081059105A8F321E0C21AD108E10817
:1010D000F10838EE830E33E0931EA11CB11CC1143D
:1010E000D104E104F10429F781E00E9483058BE338
:1010F0009FE10197F1F761E082E00E944E0261E01A
:1011000083E00E944E0261E084E00E944E020E9451
:10111000BE0458E2E52E52E0F52E08E112E080E22E
:1011200092E09A838983A981BA818C911296BA83BD
:10113000A98360E00E944E02F80180810E5F1F4F7C
:1011400060E00E944E0229813A81E216F30659F7C7
:1011500038E1E32E32E0F32E40E152E05A83498336
:10116000A981BA811C911296BA83A98361E0812F6B
:101170000E944E0261E0812F0E942002E981FA81E3
:10118000EE16FF0669F762E080E30E944E0262E01D
:1011900081E30E944E0262E082E30E944E02E091EF
:1011A0002503F091260382E08083E0912103F091F2
:1011B00022031082E0912303F09124038FEC8083BB
:1011C00010922D03E0912903F0912A0386E0808399
:1011D000E0912703F0912803808180618083E09172
:1011E0002703F0912803808188608083E0912703A2
:1011F000F0912803808180688083E0912703F0913B
:10120000280380818F7D808363E672E085E193E02F
:101210000E94430662E772E085E193E00E94430684
:1012200022242394312C8FB7F89420910D03309110
:101230000E0340910F035091100329833A834B838F
:101240005C838FBF8091080390910903A0910A03EA
:10125000B0910B03281B390B4A0B5B0BDA01C90158
:10126000C297A105B10508F48AC089819A81AB8132
:10127000BC818093080390930903A0930A03B09361
:101280000B038FB7F89480900D0390900E03A090FD
:101290000F03B09010038FBF00E212E01E821D8288
:1012A000D8018C910E5F1F4F0E94F701ED81FE81E6
:1012B0003196FE83ED83019721F4EA50FD4F21E042
:1012C00020834D815E814430510551F708E112E0E1
:1012D0001E821D82D8018C910E5F1F4F0E94F70164
:1012E000019731F4ED81FE81EA50FD4FB1E0B28308
:1012F000ED81FE813196FE83ED83349759F780911D
:10130000F2029091F302A091F402B091F502A501CE
:101310009401281B390B4A0B5B0BDA01C9018C3293
:101320009140A105B10558F100E112E0F12CE12C4A
:10133000D801DC900E5F1F4F60E08D2D0E942002CF
:1013400080E30E94F7019E838D83892B09F4EAC014
:1013500081E30E94F701892B09F4E0C082E30E9437
:10136000F701892B09F41DC161E08D2D0E94200237
:10137000BFEFEB1AFB0AE4E0EE16F104C9F68FB7F3
:10138000F89480900D0390900E03A0900F03B090FE
:1013900010038FBF8091FC029091FD02A091FE028C
:1013A000B091FF0275016401C81AD90AEA0AFB0A62
:1013B00080917B00877F80937B0080E480937C001A
:1013C00080917A00806480937A0080917A0086FD13
:1013D000FCCF6091780070917900072E000C880B8B
:1013E000990B0E94AB0C2AE038E240EA5BE30E94D2
:1013F000EB0C2B013C0120E030E040EE5FE30E946B
:10140000E60C87FFE7C020E030E040EA5FE3C3017D
:10141000B2010E94E60C87FFE0C020E030E040E42B
:101420005FE3C301B2010E94E60C87FFD9C090E0E0
:1014300080E064E670E00E94DD0D29E1269FC00196
:10144000279F900D112480569F4F209102033091C9
:1014500003032230310509F484C10CF0C4C0211506
:10146000310509F4DCC02130310509F43AC180911D
:10147000040390910503A0910603B091070329810D
:101480003A814B815C81281B390B4A0B5B0BDA01DB
:10149000C9018C329140A105B105E8F189819A8199
:1014A000AB81BC818093040390930503A093060352
:1014B000B093070380E00E942F0684EB92E00E9425
:1014C00052066091020270910302072E000C880BF5
:1014D000990B0E94570689EB92E00E945206609198
:1014E000000270910102072E000C880B990B0E94DC
:1014F00057068AEC92E00E94520681E00E942F0675
:101500008091020390910303049709F0B5C182E929
:1015100092E00E9452060E94890485CE21E030E0CC
:101520003E832D8361E08D2D0E942002C701880F2C
:10153000991F8E0D9F1D8C5F9D4FAD81BE81A80FA1
:10154000B91FBC91BD83BB2309F419CF8092F2026D
:101550009092F302A092F402B092F5028B2F815385
:10156000853020F5EB2F0E2E000CFF0BF097FE833D
:10157000ED83EA50FD4F21E0208381E00E942F0699
:1015800085E792E00E9452064D815E81BA01550FB7
:10159000880B990B0E9457068BEC92E00E94520632
:1015A000EECE42E050E05E834D83BCCF5D815A3287
:1015B00009F0E5CE1092F7021092F8021092F902AB
:1015C0001092FA021092FB0281E00E942F0681E83D
:1015D00092E0E4CF8CE291E02CCF88EC90E029CF30
:1015E00084E690E026CF2330310509F4D5C02430BD
:1015F000310509F03CCFF0EDCF16F7E0DF06E1044E
:10160000F10408F434CF81E00E942F0683EA92E0CF
:101610000E945206109203031092020328CF809179
:101620000003909101032091020230910302813066
:101630009105A9F4C901019686309105BCF5FC011C
:10164000EA50FD4F40814423B1F38F3F9807A1F446
:1016500010920103109200030E94BE0408CF01966D
:1016600029F5C90101971816190604F5FC01EA507D
:10167000FD4F40814423B1F3909301028093000217
:10168000281739075CF581E090E09093010380937F
:10169000000330920303209202038092FC02909296
:1016A000FD02A092FE02B092FF02E1CEC9010196B6
:1016B000863091053CF4FC01EA50FD4F4081442303
:1016C000B1F3C3CFC9010197181619060CF6FC0136
:1016D000EA50FD4F40814423B1F3CECF8FEF9FEF0F
:1016E000D4CF092E000CAA0BBB0B9C01AD012456D4
:1016F000310941095109C701B6010E94CD0D28EEFB
:1017000033E040E050E00E944E0CDA01C9018C59F0
:101710009F4FAF4FBF4F8F3F910519F014F08FEFE0
:1017200090E08436910514F484E690E02091000363
:10173000309101032130310589F40E94DC04E8EE88
:10174000CE16E3E0DE06E104F10408F490CE22E0D8
:1017500030E030930303209302039FCF0E94CB0419
:10176000EECF20910003309101032130310589F43F
:101770000E94DC0430EDC31637E0D306E104F10427
:1017800008F475CE43E050E0509303034093020306
:1017900084CF0E94CB04EECF2C01990F6608770806
:1017A00024E630E040E050E02419350946095709A5
:1017B000C701B6010E94CD0D28EE33E040E050E0B5
:1017C0000E944E0C240D351D461D571D2F3F31051F
:1017D00019F014F02FEF30E02436310514F424E62C
:1017E00030E08091000390910103019709F040C01F
:1017F000C9010E94DC0458EEC51653E0D506E10489
:10180000F10408F434CE0E94BE048091000290914D
:1018100001029093030280930202FC01EA50FD4F03
:10182000108222B1207E22B901978530910550F4B3
:1018300022B1D10102C0AA0FBB1F8A95E2F7CD01E8
:10184000822B82B9E4E0F0E0F0930303E09302031B
:101850008092FC029092FD02A092FE02B092FF02E2
:1018600081E00E942F0682E992E00E945206FFCD9D
:10187000C9010E94CB04BFCF809100039091010366
:101880008130910519F48FEB92E043CE019619F463
:1018900080ED92E03ECE81EE92E03BCE052E97FBAE
:1018A0001EF400940E94650C57FD07D00E94780C2E
:1018B00007FC03D04EF40C94650C50954095309580
:1018C00021953F4F4F4F5F4F0895909580957095AC
:1018D00061957F4F8F4F9F4F08950E949A0CA59F4F
:1018E000900DB49F900DA49F800D911D112408951B
:1018F000A1E21A2EAA1BBB1BFD010DC0AA1FBB1F14
:10190000EE1FFF1FA217B307E407F50720F0A21B85
:10191000B30BE40BF50B661F771F881F991F1A94F2
:1019200069F760957095809590959B01AC01BD011C
:10193000CF010895A29FB001B39FC001A39F700D76
:10194000811D1124911DB29F700D811D1124911DC7
:101950000895E89409C097FB3EF4909580957095A2
:1019600061957F4F8F4F9F4F9923A9F0F92F96E9EB
:10197000BB279395F695879577956795B795F11160
:10198000F8CFFAF4BB0F11F460FF1BC06F5F7F4FFD
:101990008F4F9F4F16C0882311F096E911C077230F
:1019A00021F09EE8872F762F05C0662371F096E818
:1019B000862F70E060E02AF09A95660F771F881FE7
:1019C000DAF7880F9695879597F908950E94580D34
:1019D00008F48FEF08950E94FE0C0C94930D0E9462
:1019E000850D38F00E948C0D20F0952311F00C9499
:1019F0007C0D0C94820D11240C94C70D0E94A40D33
:101A000070F3959FC1F3950F50E0551F629FF00151
:101A1000729FBB27F00DB11D639FAA27F00DB11D6A
:101A2000AA1F649F6627B00DA11D661F829F2227F3
:101A3000B00DA11D621F739FB00DA11D621F839F7A
:101A4000A00D611D221F749F3327A00D611D231F50
:101A5000849F600D211D822F762F6A2F11249F579E
:101A600050409AF0F1F088234AF0EE0FFF1FBB1FA1
:101A7000661F771F881F91505040A9F79E3F510560
:101A800080F00C947C0D0C94C70D5F3FE4F3983EFE
:101A9000D4F3869577956795B795F795E7959F5F0A
:101AA000C1F7FE2B880F911D9695879597F908959C
:101AB000990F0008550FAA0BE0E8FEEF161617065F
:101AC000E807F907C0F012161306E407F50798F0C7
:101AD000621B730B840B950B39F40A2661F0232BE0
:101AE000242B252B21F408950A2609F4A140A6955C
:101AF0008FEF811D811D089597F99F6780E870E041
:101B000060E008959FEF80EC089500240A94161673
:101B1000170618060906089500240A9412161306DB
:101B2000140605060895092E0394000C11F4882369
:101B300052F0BB0F40F4BF2B11F460FF04C06F5F85
:101B40007F4F8F4F9F4F089557FD9058440F551F5B
:101B500059F05F3F71F04795880F97FB991F61F02F
:101B60009F3F79F087950895121613061406551FA6
:101B7000F2CF4695F1DF08C0161617061806991F12
:101B8000F1CF86957105610508940895E894BB2707
:101B900066277727CB0197F90895DB018F939F93F1
:101BA0000E946D0CBF91AF91A29F800D911DA39FCC
:101BB000900DB29F900D1124089597FB072E16F4F7
:101BC000009407D077FD09D00E94F90D07FC05D0DD
:101BD0003EF4909581959F4F0895709561957F4F44
:101BE0000895EE0FFF1F881F8BBF0790F691E02D21
:101BF0001994AA1BBB1B51E107C0AA1FBB1FA61744
:101C0000B70710F0A61BB70B881F991F5A95A9F7A5
:0E1C100080959095BC01CD010895F894FFCF0A
:101C1E00010001003132333435363738392A30235A
:101C2E002C002D002E002F00260028002A002B004D
:101C3E002400250027002900000000001C04860354
:101C4E00B3036904E403C203D603000000003D069B
:101C5E008603BB04BA0420456C657661746F7220EE
:101C6E00200020496E697469616C697A696E672E0D
:101C7E002E2000456C657661746F7220726561640A
:101C8E0079000D0A005265713A20466C6F6F722012
:101C9E0000517565756520436C6561726564202021
:101CAE002000446F6F723A204F50454E2020202066
:101CBE00202000446F6F723A20434C4F534544200E
:101CCE0020202000466C723A00205467743A004778
:101CDE006F696E673A20555020202020202020006A
:101CEE00476F696E673A20444F574E2020202020C0
:101CFE00005374617475733A2049444C452020207A
:021D0E002000B3
:00000001FF
